S123001DCE001D33C90CB233C9000033C90000108EC8808E02592708A6C0A7A0301F26F80A
S123003D108ECAD98E000327066FA0301F26FABD04C05D2F037FCBFE7EF0003460327AAF6D
S123005DE4EE6E8E0000AF62118300002736ECE410AE6230ABE684E764EC6C30ABE684E7AB
S123007D651F20C30001ED62335FE664E16527D8C6FFE762E664E1652504C601E762E66268
S123009D326635E06F62E662326635E03460327CAFE4AE6C271FCE0000EF62ECE4AE623167
S12300BD8BEC6A308BE684E7A4EC62C30001ED6210A36C26E6AEE4326435E03460327CAFD4
S12300DDE4AC6A242CAE6C2722CE0000EF62ECE4AE62318BEC6A308BE684E7A4EC62C30080
S12300FD01ED62AE6C3406ACE126E3AEE4326435E0EE6C27F61F30C3FFFFED62EC6AEE62EC
S123011D30CBECE431CB2007EC62C3FFFFED62E684E7A4313F301FEE6226EDAEE4326435FE
S11E013DE034603184EE66270E1E0233CB1E02E7803440ACE126F830A435E044
S1230158A6627EF2C31F107EF2C334401F13BDF37335C034401F13BDF37835C03440A664E7
S12301781F13BDF37A35C034401F10EE64BDF37A35C034401F13BDF38535C034401F13BDCB
S1230198F38A35C034401F13BDF38C35C0A6627EF391A6627EF39334401F13BDF49535C003
S12301B83440BDF49835C01F987EF4331F987EF434A6627EF3DFA6627EF3D81F987EF3DA0D
S12301D8A6627EF3B71F987EF3B9A6627EF3BE34401F98EE64BDF61F35C03440EE64BDF6FE
S12301F82235C03440EE64BDF62B35C0BDF5111F8939BDF5171F89391F98BDF57E1F89391D
S1230218A662BDF5841F01391F98BDF5DB1F8939BDF5EF1F01391F98BDF65B1F0139BDF63B
S12302385D1F89391F98BDF6611F8939BDF6631F8939EC627EF54834401F98EE64BDF67F09
S123025835C034401F98EE64BDF67F35C0A6627EF5521F987EF1B43460A666BDF7A935E030
S123027834601F981F12BDF83535E034401F98BDF85E35C0EC627EF87C3440EE64BDF8C732
S12302981F8935C03440EE64BDF8D835C0A6627EF256A6627EF25934401F13BDF27D35C0F7
S12302B83440EE64BDF28435C03440BDF28935C034601F13BDF68735E034401F13BDF68D98
S12302D835C03440EE64BDF69035C034601F13BDF69235E034401F13BDF92E35C0A6627EEA
S12302F8F2FC1F107EF2FCA6627EF3121F107EF3121F987EF2AB3460A66610AE67EE69BD71
S1230318F8E5C600C90035E03460A66610AE67EE69BDF8F3C600C90035E03420A66410AEBC
S123033865BDF8FFC600C90035A0A662BDF5FF1F0139A662BDF6011F01391F98BDF6031F71
S123035801393440A664EE65BDF61035C03440EE64BDF61335C03440EE64BDF61635C03485
S1230378201F12BDEA5D35A034201F12BDEA6D35A0342010AE64BDEA7F35A0342010AE64E2
S1230398BDEA8D35A034601F12EE66BDEAA835E03420A664BDE7B535A03420A664BDE7D25B
S12003B835A0BDEA5D1F01393460BDEACF35E03460BDEAB435E03460BDEAF035E08F
S12000006720474345203230313880FD0DF85010A653555045522054414E4B8000B9
S12303D5342010BEC8EABD020AE72110BEC8EABD020AE7A435A0342010BEC8EABEC8EAE68C
S11103F501CB02E72135A0BEC8EABD098D394F
S12304038EC970BD098D8EC9DABD098D3947455420524541445900327FBD045CBD0456BDE7
S12304230452BD044EBD04F1BD03D5C64BE7E42013BDF192BDF354C6C4E7E28E04105FBDA5
S123044307D232616AE426E93261397FC822397FC82139C603F7C82039C601F7C81F3932CC
S12304637FC601E7E42017BDF192BD0502BD03EBBD0403BD07C8BD03FCBD07CFE7E46DE4C3
S123048326E532613947414D45204F56455200327FC696E7E42013BDF192BDF354C6BAE752
S12304A3E28E04885FBD07D232616AE426E9326139BD041ABD0462BD0492C6FF39327FBDCB
S10E04C304B4E7E427F9E6E4326139F1
S12304CE5F39395F39327DAF61E6F801270EE6F801CBF6E7F801C601E7E420026FE4E6E47D
S10604EE32633939
S12304F1C6A1F7CAAB7FCAAC7FCAADC61EF7CAAE3932E8E1BD075CF6C9E210270112BD07D3
S1230511605D2716F6CAADE762C63FE462E76BF7C9E5E6625AF7CAAD201ABD07775D2714B7
S1230531F6CAADE762C63FE462E76CF7C9E5E6625CF7CAADBD078A5D10270063F6CAACE703
S12305516DF6C9E54F1F01E689C9E6E76E86673DEDE41F894FEDE4E66157E76AE66E5959DB
S1230571C40150E06A50EB6DF7CAACF6CAABE76FF6C9E54F1F01E689CA25E7E81086673DB7
S1230591EDE41F894FEDE4E66157E769E6E8105959C40150E06950EB6FF7CAAB7E073ABD3F
S12305B107A15D10270182F6CAACE7E811F6C9E54F1F01E689C9E6E7E81286673DEDE41FEF
S12305D1894FEDE4E66157E768E6E8125959C40150E06850EBE811F7CAACF6CAABE7E81393
S12305F1F6C9E54F1F01E689CA25E7E81486673DEDE41F894FEDE4E66157E767E6E81459A8
S123061159C40150E06750EBE813F7CAAB7E073ABD07605D2717F6CAADE762C63FE462E708
S1230631E815F7C9E5E6625AF7CAAD201BBD07775D2715F6CAADE762C63FE462E7E816F707
S1230651C9E5E6625CF7CAADBD078A5D10270069F6CAACE7E817F6C9E54F1F01E689C9E6F7
S1230671E7E81886673DEDE41F894FEDE4E66157E766E6E8185959C40150E06650EBE817A3
S1230691F7CAACF6CAABE7E819F6C9E54F1F01E689CA25E7E81A86673DEDE41F894FEDE468
S12306B1E66157E765E6E81A5959C40150E06550EBE819F7CAAB7E073ABD07A15D102700E7
S12306D168F6CAACE7E81BF6C9E54F1F01E689C9E6E7E81C86673DEDE41F894FEDE4E66121
S12306F157E764E6E81C5959C40150E06450E0E81B50F7CAACF6CAABE7E81DF6C9E54F1FF5
S123071101E689CA25E7E81E86673DEDE41F894FEDE4E66157E763E6E81E5959C40150E03A
S12307316350E0E81D50F7CAABBD07B4BD07B85D2615BD07C25D270FBD04D15D27098EC935
S1230751E4BD04D3F7C9E232E81F39BDF1F839327FBD07736FE45D2C04C601E7E4E6E432C3
S12307716139F6C81B39327FBD07736FE45D2F04C601E7E4E6E4326139327FBD079D6FE460
S12307915D2F04C601E7E4E6E4326139F6C81C39327FBD079D6FE45D2C04C601E7E4E6E42B
S12307B1326139BDF1BA39BD07BEC40839F6C80F39BD07BEC404398ECAABBD098D39C60151
S10407D139EA
S12307D232E8E3E767AF65E667E768E6E81FE769C602E7E81CE6E81CE762E6F805E764E6D1
S12307F2624FEDE430681E01E3E41E01E664E7846CE81CE6F805E7632704C601E763E663ED
S1230812E762EC65C30001ED656D6226C8E6E81C5A4F3068308BC680E784BDF34A3068BD6F
S1230832016B32E81D393273E765E766E66FE767C680E76BC604E76CE66CE763E6E8104F67
S1230852EDE48E000A3410AE62BD0C7E32621F10E762CB30E764E6634FEDE430661E01E32B
S1230872E41E01E664E7846A6CE6E8104FEDE48E000A3410AE62BD0C8F32621F10E7E810F0
S1230892E66CC10122B2BDF34A3066BD016B326D3932E8EEE765E766E6E814E767C680E7CB
S12308B2E810C609E7E811E6E811E763E6E815E7E4C601E4E4E762CB30E764E6634FEDE41D
S12308D230661E01E3E41E01E664E7846AE81164E815E6E811C10122CEBDF34A3066BD010F
S12308F26B32E81239342032E8EFE767AF65E667E768E6E815E769C680E76FC606E7E8103D
S1230912E6E810E76310AE658E000A341030A4BD0C7E32621F10E762CB30E764E6634FEDA8
S1230932E430681E01E3E41E01E664E7846AE81010AE658E000A341030A4BD0C8F3262AF9B
S118095265E6E810C10122B8BDF34A3068BD016B32E81135A0F2
S1230967CAD3CAC0BE09676F01BE09676F84BE09676F0339BE09696F01BE09696F84BE0923
S1080987696F0339391A
S123098C50346032E8BD33E4AFC81C10EF43AEC81CE602102701DCAEC81CAE04E68410262E
S12309AC00DB30E4AF4EAEC81CAE04E6014F1F01AF49EC495849ED49308BAF49EC49584914
S12309CC58495849ED49AEC81CAE04E6014F1F011F1058491F01AEC81CAE04E6014F1F016B
S12309ECAF47EC475849ED47308BAF47EC47584958495849ED47AEC81CAE04E6014F1F0154
S1230A0CAF45EC455849ED451E01E3451E011F403410A3E11F0410EF4B10AE4B3020AF4B81
S1230A2CEC4BEDC81EAEC81CAE0410AE02AEC81CE602E7C82610AFC824AEC81EAFC822343D
S1230A4C10AEC824E6C826BD01E73262AEC81CE601E7C4E6D81CE74DE6C43404E64DBD0CBF
S1230A6C413261AEC81CE603E7C829AEC81EAFC827E6C829BDF40E10EE4E7E0C3930E4AFA5
S1230A8CC816AEC81CAE04E6014FEDC45849EDC41F40A3C41F0410EFC81010AEC810302045
S1230AACAFC810ECC810EDC820AEC81CAE0410AE02AEC81CAE04E601E7425AE7C812AEC81D
S1230ACC1CE602E7C82FE6C812E7C82E10AFC82CAEC820AFC82A3410E6C82FE7E2AEC82C11
S1230AECE6C82EBD035A3263AEC81CE601E742E6D81CE7C813E6423404E6C813BD0C4132C0
S1230B0C61AEC81CAE04E684C1012631AEC81CE603E7C814AEC81CAE04E6015AE7C833E612
S1230B2CC814E7C832AEC820AFC830E6C833E7E2AEC830E6C832BD01CE3261202FAEC81C7B
S1230B4CE603E7C815AEC81CAE04E6015AE7C837E6C815E7C836AEC820AFC834E6C837E7B8
S1230B6CE2AEC834E6C836BD01D8326110EEC8167E0C39AEC81CE601E742E6D81CE7C818EA
S1230B8CE6423404E6C818BD0C413261AEC81CAE04E684E7C8192709E6C819C101272220EA
S1230BAC57AEC81CAE0410AE02AEC81CE603E7C83A10AFC838AEC838E6C83ABDF40E7E0CC8
S1230BCC39AEC81CAE0410AE02AEC81CE603E7C81AAEC81CAE04E6015AE7C83EE6C81AE763
S1230BECC83D10AFC83BE6C83EE7E2AEC83BE6C83DBD01CE32612035AEC81CAE0410AE0255
S1230C0CAEC81CE603E7C81BAEC81CAE04E6015AE7C842E6C81BE7C84110AFC83FE6C8429A
S1230C2CE7E2AEC83FE6C841BD01D8326110EE4332E84335E0327FE7E4BD0C5BF6098C34FC
S1230C4C04E664E7E2E662BD0C5F3262326139BDF35439327DE7E4E666F7D004E6E4E762BC
S1230C6CE665E761E662E7E2E662BD02FF3261326339EC6226037EF0003410BD0C9D326236
S1230C8C1F0139EC6226037EF0003410BD0C9D3590327D6F606C604D2B066C60584920F84A
S1230CACED61EC656F656F66A3612406E3611CFE20021A0169666965646166626A6026E811
S1060CCC32633953
S9030000FC
